:020000040800F2
:10000000000002207947000829450008354500080E
:100010003D450008454500084D450008000000002A
:10002000000000000000000000000000554500082E
:100030006345000800000000714500087F45000886
:10004000C9470008C9470008C9470008C947000850
:10005000C9470008C9470008C9470008C947000840
:10006000C9470008C9470008C9470008C947000830
:10007000C9470008C9470008C9470008C947000820
:10008000C9470008C9470008C9470008C947000810
:10009000C9470008C9470008C9470008C947000800
:1000A000C94700088D450008C9470008C94700082E
:1000B000C9470008C9470008C9470008C9470008E0
:1000C000C9470008C9470008C9470008C9470008D0
:1000D000C9470008C9470008C9470008C9470008C0
:1000E000C9470008C9470008C9470008C9470008B0
:1000F000C9470008C9470008C9470008C9470008A0
:10010000C9470008C9470008C9470008C94700088F
:10011000A1450008C9470008C9470008C9470008A9
:10012000C9470008C9470008C9470008C94700086F
:10013000C9470008C9470008C9470008C94700085F
:10014000C9470008C9470008C9470008C94700084F
:10015000C9470008C9470008C9470008B545000855
:10016000C9470008C9470008C9470008C94700082F
:10017000C9470008C9470008C94700080000000037
:08018000C9470008C947000847
:1001900010B5054C237833B9044B13B10448AFF3C1
:1001A00000800123237010BD7002002000000000B9
:1001B00078DF000808B5034B1BB103490348AFF3D0
:1001C000008008BD000000007402002078DF0008F5
:1001D00001F0FF01102A2BDB10F0070F08D010F8F8
:1001E000013B013A8B422DD010F0070F42B3F6D1FC
:1001F000F0B441EA012141EA014122F007047FF015
:1002000000070023F0E80256083C85EA010586EA6B
:10021000010685FA47F5A3FA87F586FA47F6A5FAA7
:1002200087F68EB9EED1F0BC01F0FF0102F00702B3
:1002300032B110F8013B013A83EA010313B1F8D15E
:100240000020704701387047002D06BF354603383F
:10025000073815F0010F07D1013015F4807F02BF78
:10026000013015F4C03F0130F0BC0138704700BFC9
:10027000034613F8012B002AFBD1181A01387047E6
:1002800081F0004102E000BF83F0004330B54FEA47
:1002900041044FEA430594EA050F08BF90EA020FB4
:1002A0001FBF54EA000C55EA020C7FEA645C7FEA47
:1002B000655C00F0E2804FEA5454D4EB5555B8BF6A
:1002C0006D420CDD2C4480EA020281EA030382EADB
:1002D000000083EA010180EA020281EA0303362D6D
:1002E00088BF30BD11F0004F4FEA01314FF4801C40
:1002F0004CEA113102D0404261EB410113F0004F52
:100300004FEA03334CEA133302D0524263EB430308
:1003100094EA050F00F0A780A4F10104D5F1200EA6
:100320000DDB02FA0EFC22FA05F2801841F1000101
:1003300003FA0EF2801843FA05F359410EE0A5F1D5
:1003400020050EF1200E012A03FA0EFC28BF4CF006
:10035000020C43FA05F3C01851EBE37101F00045BC
:1003600007D54FF0000EDCF1000C7EEB00006EEBC9
:100370000101B1F5801F1BD3B1F5001F0CD3490853
:100380005FEA30004FEA3C0C04F101044FEA4452AA
:1003900012F5800F80F09A80BCF1004F08BF5FEA31
:1003A000500C50F1000041EB045141EA050130BD11
:1003B0005FEA4C0C404141EB0101013C28BFB1F523
:1003C000801FE9D291F0000F04BF01460020B1FA6E
:1003D00081F308BF2033A3F10B03B3F120020CDA41
:1003E0000C3208DD02F1140CC2F10C0201FA0CF01F
:1003F00021FA02F10CE002F11402D8BFC2F1200C84
:1004000001FA02F120FA0CFCDCBF41EA0C01904039
:10041000E41AA2BF01EB0451294330BD6FEA040482
:100420001F3C1CDA0C340EDC04F11404C4F120026D
:1004300020FA04F001FA02F340EA030021FA04F37F
:1004400045EA030130BDC4F10C04C4F1200220FAD6
:1004500002F001FA04F340EA0300294630BD21FA14
:1004600004F0294630BD94F0000F83F4801306BFDA
:1004700081F480110134013D4EE77FEA645C18BFCE
:100480007FEA655C29D094EA050F08BF90EA020F65
:1004900005D054EA000C04BF1946104630BD91EA5D
:1004A000030F1EBF0021002030BD5FEA545C05D160
:1004B0004000494128BF41F0004130BD14F580049F
:1004C0003CBF01F5801130BD01F0004545F0FE4113
:1004D00041F470014FF0000030BD7FEA645C1ABF48
:1004E000194610467FEA655C1CBF0B46024650EA7F
:1004F000013406BF52EA033591EA030F41F40021AB
:1005000030BD00BF90F0000F04BF0021704730B530
:100510004FF4806404F132044FF000054FF0000105
:1005200050E700BF90F0000F04BF0021704730B5C6
:100530004FF4806404F1320410F0004548BF40429B
:100540004FF000013EE700BF42004FEAE2014FEAF0
:1005500031014FEA02701FBF12F07F4393F07F4FCB
:1005600081F06051704732F07F4208BF704793F0CE
:100570007F4F04BF41F40021704730B54FF46074E1
:1005800001F0004521F000411CE700BF50EA0102E4
:1005900008BF704730B54FF000050AE050EA01028D
:1005A00008BF704730B511F0004502D5404261EBFD
:1005B00041014FF4806404F132045FEA915C3FF43E
:1005C000D8AE4FF003025FEADC0C18BF03325FEADB
:1005D000DC0C18BF033202EBDC02C2F1200300FA8C
:1005E00003FC20FA02F001FA03FE40EA0E0021FAB1
:1005F00002F11444BDE600BF70B54FF0FF0C4CF49F
:10060000E06C1CEA11541DBF1CEA135594EA0C0F50
:1006100095EA0C0F00F0DEF82C4481EA030621EA8B
:100620004C5123EA4C5350EA013518BF52EA0335C6
:1006300041F4801143F4801338D0A0FB02CE4FF078
:100640000005E1FB02E506F00042E0FB03E54FF0A8
:100650000006E1FB03569CF0000F18BF4EF0010EA0
:10066000A4F1FF04B6F5007F64F5407404D25FEA9C
:100670004E0E6D4146EB060642EAC62141EA55514F
:100680004FEAC52040EA5E504FEACE2EB4F1FD0C91
:1006900088BFBCF5E06F1ED8BEF1004F08BF5FEA0F
:1006A000500E50F1000041EB045170BD06F00046C1
:1006B00046EA010140EA020081EA0301B4EB5C046E
:1006C000C2BFD4EB0C0541EA045170BD41F4801166
:1006D0004FF0000E013C00F3AB8014F1360FDEBF8B
:1006E000002001F0004170BDC4F10004203C35DA67
:1006F0000C341BDC04F11404C4F1200500FA05F3EA
:1007000020FA04F001FA05F240EA020001F000428A
:1007100021F0004110EBD37021FA04F642EB060100
:100720005EEA430E08BF20EAD37070BDC4F10C042A
:10073000C4F1200500FA04F320FA05F001FA04F2EE
:1007400040EA020001F0004110EBD37041F10001DA
:100750005EEA430E08BF20EAD37070BDC4F12005E5
:1007600000FA05F24EEA020E20FA04F301FA05F24D
:1007700043EA020321FA04F001F0004121FA04F2F5
:1007800020EA020000EBD3705EEA430E08BF20EAC5
:10079000D37070BD94F0000F0FD101F000464000FF
:1007A00041EB010111F4801F08BF013CF7D041EA81
:1007B000060195F0000F18BF704703F00046520085
:1007C00043EB030313F4801F08BF013DF7D043EA56
:1007D0000603704794EA0C0F0CEA135518BF95EA0C
:1007E0000C0F0CD050EA410618BF52EA4306D1D193
:1007F00081EA030101F000414FF0000070BD50EAB2
:10080000410606BF1046194652EA430619D094EA3B
:100810000C0F02D150EA013613D195EA0C0F05D125
:1008200052EA03361CBF104619460AD181EA030179
:1008300001F0004141F0FE4141F470014FF0000031
:1008400070BD41F0FE4141F4780170BD70B54FF0CC
:10085000FF0C4CF4E06C1CEA11541DBF1CEA13554C
:1008600094EA0C0F95EA0C0F00F0A7F8A4EB05042E
:1008700081EA030E52EA03354FEA013100F0888025
:100880004FEA03334FF0805545EA131343EA1263EE
:100890004FEA022245EA111545EA10654FEA0026A3
:1008A0000EF000419D4208BF964244F1FD0404F55C
:1008B000407402D25B084FEA3202B61A65EB0305B8
:1008C0005B084FEA32024FF480104FF4002CB6EB75
:1008D000020E75EB030E22BFB61A754640EA0C00F5
:1008E0005B084FEA3202B6EB020E75EB030E22BF35
:1008F000B61A754640EA5C005B084FEA3202B6EB76
:10090000020E75EB030E22BFB61A754640EA9C0034
:100910005B084FEA3202B6EB020E75EB030E22BF04
:10092000B61A754640EADC0055EA060E18D04FEAC2
:10093000051545EA16754FEA06164FEAC30343EA62
:1009400052734FEAC2025FEA1C1CC0D111F4801F2F
:100950000BD141EA00014FF000004FF0004CB6E728
:1009600011F4801F04BF01430020B4F1FD0C88BFC7
:10097000BCF5E06F3FF6AFAEB5EB030C04BFB6EBD2
:10098000020C5FEA500C50F1000041EB045170BDC5
:100990000EF0004E4EEA113114EB5C04C2BFD4EBF2
:1009A0000C0541EA045170BD41F480114FF0000E76
:1009B000013C90E645EA060E8DE60CEA135594EAF2
:1009C0000C0F08BF95EA0C0F3FF43BAF94EA0C0FF5
:1009D0000AD150EA01347FF434AF95EA0C0F7FF46A
:1009E00025AF104619462CE795EA0C0F06D152EABE
:1009F00003353FF4FDAE1046194622E750EA4106A2
:100A000018BF52EA43067FF4C5AE50EA41047FF4B2
:100A10000DAF52EA43057FF4EBAE12E74FF0FF3C17
:100A200006E000BF4FF0010C02E000BF4FF0010CE8
:100A30004DF804CD4FEA410C7FEA6C5C4FEA430C61
:100A400018BF7FEA6C5C1BD001B050EA410C0CBFB0
:100A500052EA430C91EA030F02BF90EA020F002012
:100A6000704710F1000F91EA030F58BF994208BF79
:100A700090422CBFD8176FEAE37040F00100704736
:100A80004FEA410C7FEA6C5C02D150EA013C07D18D
:100A90004FEA430C7FEA6C5CD6D152EA033CD3D0D8
:100AA0005DF8040B704700BF8446104662468C46D2
:100AB0001946634600E000BF01B5FFF7B7FF002805
:100AC00048BF10F1000F01BD4DF808EDFFF7F4FF2E
:100AD0000CBF012000205DF808FB00BF4DF808EDB9
:100AE000FFF7EAFF34BF012000205DF808FB00BFDC
:100AF0004DF808EDFFF7E0FF94BF012000205DF8FE
:100B000008FB00BF4DF808EDFFF7CEFF94BF0120B2
:100B100000205DF808FB00BF4DF808EDFFF7C4FFAB
:100B200034BF012000205DF808FB00BF4FEA410CF4
:100B30007FEA6C5C02D150EA013C0AD14FEA430CD7
:100B40007FEA6C5C02D152EA033C02D14FF0000014
:100B500070474FF0010070474FEA410212F5001252
:100B600015D211D56FF47873B3EB625212D94FEAF4
:100B7000C12343F0004343EA505311F0004F23FADE
:100B800002F018BF404270474FF00000704750EA33
:100B9000013005D111F0004008BF6FF000407047F0
:100BA0004FF00000704700BF4FEA4102B2F1E0434E
:100BB00024BFB3F5001CDCF1FE5C0DD901F0004C44
:100BC0004FEAC0024CEA5070B2F1004F40EB830094
:100BD00008BF20F00100704711F0804F21D113F1C0
:100BE0003872BCBF01F00040704741F480114FEAF9
:100BF0005252C2F11802C2F1200C10FA0CF320FA82
:100C000002F018BF40F001004FEAC1234FEAD3239E
:100C100003FA0CFC40EA0C0023FA02F34FEA430308
:100C2000CCE77FEA625307D150EA01331EBF4FF091
:100C3000FE4040F44000704701F0004040F0FE40AC
:100C400040F40000704700BF53B94AB9002908BFFB
:100C500000281CBF4FF0FF314FF0FF3000F088B983
:100C6000ADF1080C6DE904CE00F006F8DDF804E003
:100C7000DDE9022304B070472DE9F047089D8E4658
:100C800004468846002B4AD18A42174662D9B2FAF6
:100C900082F64EB1C6F1200301FA06F820FA03F3FA
:100CA000B74043EA0808B4404FEA174E1FFA87FCE2
:100CB000B8FBFEF1230C0EFB118843EA084301FB4D
:100CC0000CF29A4209D9FB1801F1FF3080F0EA805A
:100CD0009A4240F2E78002393B449A1AA3B2B2FB2F
:100CE000FEF00EFB102243EA024300FB0CFC9C4585
:100CF00009D9FB1800F1FF3280F0D6809C4540F204
:100D0000D3803B44023840EA0140A3EB0C030021AE
:100D10001DB1F3400022C5E90032BDE8F0878B42E7
:100D200005D90DB1C5E9000100210846F5E7B3FA80
:100D300083F1002946D1734502D3824200F2058136
:100D4000841A6EEB030201209046002DE5D0C5E920
:100D50000048E2E7002A00F09080B2FA82F6002E06
:100D600040F0A4808A1A030C4FEA174E80B2BCB23E
:100D70000121B2FBFEFC0EFB1C2243EA024304FBF2
:100D80000CF29A4207D9FB180CF1FF3802D29A42B2
:100D900000F2E080C4469B1AB3FBFEF20EFB123356
:100DA00040EA034302FB04F49C4207D9FB1802F11A
:100DB000FF3002D29C4200F2CA8002461B1B42EA6C
:100DC0000C40A5E7C1F120068B4022FA06F71F432D
:100DD0000EFA01F420FA06F32EFA06FE4FEA17493E
:100DE000234300FA01F81FFA87FCBEFBF9F01C0C44
:100DF00009FB10EE44EA0E4400FB0CFEA64502FA85
:100E000001F209D93C1900F1FF3A80F09C80A64517
:100E100040F2998002383C44A4EB0E041FFA83FE92
:100E2000B4FBF9F309FB13444EEA044403FB0CFC46
:100E3000A44508D93C1903F1FF3E80F08280A44507
:100E40007FD9023B3C4443EA0040A4EB0C04A0FBE6
:100E500002EC64457346E14662D35FD05DB1B8EB06
:100E6000030264EB090404FA06F622FA01F31E43B6
:100E7000CC40C5E9006400214FE7B1FBF2FC010C56
:100E800041EA0E4180B240EA01423B4638463C46C8
:100E9000B846BE462026B1FBF7F1A2EB080241EAB4
:100EA0000C4166E7014618E710462CE7C6F1200220
:100EB0002EFA02F3B740B14020FA02F24FEA174E81
:100EC0000A43B3FBFEF8BCB20EFB1833110C41EA27
:100ED000034108FB04F9B04089454FEA104380B252
:100EE0003ED9791808F1FF3C01D289451FD8A1EB02
:100EF0000901B1FBFEF909FB04F80EFB191192B2CE
:100F000042EA0142424529D2BA1809F1FF31C4D25E
:100F10004245C2D2A9F102013A44BEE7F0459DD252
:100F2000BEEB02036CEB070C0138E14696E7A7EB3A
:100F300009094944A8F1020CB1FBFEF909FB04F8C8
:100F4000DBE773467FE7504666E70846FDE63B442D
:100F5000023A33E7ACF1020C3B441CE749469CE7FC
:100F6000A1EB0901C446B1FBFEF909FB04F8C4E793
:100F7000704700BF80B485B000AF7860396000234F
:100F8000FB600023FB723B68002B06D17B6871334A
:100F90003B6002E03B6801333B603B68002B03D0C1
:100FA0003B681B78202BF5D03B681B782D2B04D198
:100FB0003B6801333B60012300E00023FB720DE03E
:100FC000FA6813469B0013445B001A463B681B7883
:100FD000303B1344FB603B6801333B603B68002BB4
:100FE00007D03B681B782F2B03D93B681B78392B24
:100FF000E6D9FB7A002B02D0FB685B4200E0FB687D
:1010000018461437BD465DF8047B7047B0B588B00C
:1010100000AF786039604FF000024FF00003C7E97D
:1010200006234FF000024D4BC7E904230123FB6068
:101030003B68002B06D17B6871333B6002E03B6864
:1010400001333B603B68002B03D03B681B78202BAF
:10105000F5D03B681B782D2B24D14FF0FF33FB607C
:101060003B6801333B601DE04FF000023C4BD7E989
:101070000601FFF7C1FA02460B4614461D463B68BF
:101080001B78303B1846FFF74DFA02460B462046C8
:101090002946FFF7FBF802460B46C7E906233B68E3
:1010A00001333B603B681B782F2B03D93B681B78CF
:1010B000392BD9D93B681B782E2B2CD13B680133B7
:1010C0003B6028E04FF00002254BD7E90601FFF70F
:1010D00093FA02460B4614461D463B681B78303B8C
:1010E0001846FFF71FFA02460B4620462946FFF72F
:1010F000CDF802460B46C7E906234FF00002184B15
:10110000D7E90401FFF778FA02460B46C7E9042342
:101110003B6801333B603B681B782F2B03D93B684E
:101120001B78392BCED9F868FFF7FCF9D7E90623ED
:10113000FFF762FA02460B4610461946D7E9042328
:10114000FFF784FB02460B4643EC172BB0EE470A31
:10115000F0EE670A2037BD46B0BD00BF0000F03F8B
:101160000000244080B588B000AF78600021786826
:10117000FFF74CFF87ED060BD7E90601FFF7ECFC04
:1011800003461D4A82FB03125211DB17D31A18467D
:10119000FFF7C8F902460B46C7E904234FF00002E7
:1011A000164BD7E90401FFF727FA02460B46D7E9A9
:1011B0000601FFF769F802460B46C7E902234FF024
:1011C00000020F4BD7E90201FFF740FB02460B4636
:1011D000D7E90401FFF75AF802460B46C7E9062390
:1011E000D7E9062343EC172BB0EE470AF0EE670A67
:1011F0002037BD4680BD00BF1F85EB510000594020
:1012000000004E402DE9B04382B000AF78607968AD
:1012100091F87F10002969D17B6871330622BA49A1
:10122000184608F050FA0346002B09D07B6871334A
:101230000622B649184608F046FA0346002B04D1A8
:101240007B68012283F870204EE07B6871330622B0
:10125000AF49184608F037FA0346002B09D07B68DF
:1012600071330622AB49184608F02DFA0346002BCD
:1012700004D17B68022283F8702035E07B687133EB
:101280000622A549184608F01EFA0346002B09D08D
:101290007B6871330622A149184608F014FA034608
:1012A000002B04D17B68032283F870201CE07B684C
:1012B000713306229A49184608F005FA0346002BB6
:1012C00009D07B68713306229649184608F0FBF96D
:1012D0000346002B04D17B68042283F8702003E0CE
:1012E0007B68002283F87020012331E2796891F84D
:1012F0007010002900F02B82796891F87010012994
:1013000040F0C9807B6893F87F30013B0A2B00F2E4
:10131000138201A252F823F045130008BF130008FE
:10132000D5130008FF130008151400083F14000827
:10133000531400083917000867140008391700080B
:101340007F1400087B6893F87130303BDBB21A469B
:10135000920013445B00DAB27B6893F87230134456
:10136000DBB2303BDAB27B6883F8AA207B6893F863
:101370007330303BDBB21A46920013445B00DAB2A2
:101380007B6893F874301344DBB2303BDAB27B688D
:1013900083F8AB207B6893F87530303BDBB21A469C
:1013A000920013445B00DAB27B6893F87630134402
:1013B000DBB2303BDAB27B6883F8AC20C7E17868F7
:1013C000FFF7D0FEB0EE407AF0EE607A7B6883EDF6
:1013D000227BBCE17B6893F87130532B05D07B688E
:1013E00093F87130732B40F0A9817B68D3E92223F5
:1013F000904683F000497B68C3E922899EE17868C2
:10140000FFF7B0FEB0EE407AF0EE607A7B6883EDD5
:10141000247B9CE17B6893F87130572B05D07B6867
:1014200093F87130772B40F08B817B68D3E92423CC
:10143000144683F000457B68C3E9244580E1002120
:101440007868FFF797FD0346DAB27B6883F8A92036
:101450007DE100217868FFF78DFD0346DAB27B68F5
:1014600083F8A82073E100217868FFF7CFFDB0EE84
:10147000407AF0EE607A7B6883ED267B67E100219D
:101480007868FFF7C3FDB0EE407AF0EE607A7B68D3
:1014900083ED287B5BE1796891F87010022940F0B8
:1014A00083807B6893F87F30023B0F2B60D801A2CA
:1014B00052F823F0F51400087115000871150008A2
:1014C00071150008711500087115000871150008E4
:1014D00071150008711500087115000871150008D4
:1014E000711500087115000829150008411500083C
:1014F0005915000800217868FFF73CFD0346DAB271
:101500007B6883F8A02022E190DF000898DF0008C4
:10151000A0DF0008A8DF0008B0DF0008B8DF00087F
:10152000C0DF0008C8DF000800217868FFF76EFD03
:10153000B0EE407AF0EE607A7B6883ED267B06E1C0
:1015400000217868FFF762FDB0EE407AF0EE607A35
:101550007B6883ED227BFAE000217868FFF756FD77
:10156000B0EE407AF0EE607A7B6883ED247BEEE0AB
:101570007B6893F87F30022B40F2E4807B6893F81D
:101580007F300E2B00F2DE8000217868FFF7F2FC3E
:1015900002467B6893F87F30033BD1B27A681344EC
:1015A0000A4683F8A120CDE0796891F870100329EC
:1015B0001BD17B6893F87F30022B02D0032B0AD01B
:1015C000C5E000217868FFF7D5FC0346DAB27B68F6
:1015D00083F88920BBE000217868FFF7CBFC034645
:1015E000DAB27B6883F88820B1E0796891F87010EE
:1015F000042940F0AC80796891F87F1002390929FC
:1016000000F2A28001A050F821F000BF35160008BA
:10161000491700084917000849170008491700082A
:101620004F160008671600087F160008F916000814
:10163000111700087B6893F87130412B0CBF012310
:101640000023DBB21A467B6883F888207FE0002104
:101650007868FFF7DBFCB0EE407AF0EE607A7B68EA
:1016600083ED247B73E000217868FFF7CFFCB0EEB8
:10167000407AF0EE607A7B6883ED267B67E07B68DA
:1016800093F87130303BDBB21A46920013445B0092
:10169000DAB27B6893F872301344DBB2303BDAB2D3
:1016A0007B6883F889207B6893F87330303BDBB22A
:1016B0001A46920013445B00DAB27B6893F87430E8
:1016C0001344DBB2303BDAB27B6883F88A207B6854
:1016D00093F87530303BDBB21A46920013445B003E
:1016E000DAB27B6893F876301344DBB2303BDAB27F
:1016F0007B6883F88B202AE000217868FFF786FC5E
:10170000B0EE407AF0EE607A7B6883ED287B1EE0D5
:10171000796891F87110572904D0796891F871109F
:10172000772913D17968D1E92801024681F0004375
:101730007968C1E9282309E000BF08E000BF06E09E
:1017400000BF04E000BF02E000BF00E000BF0123D3
:1017500018460837BD46BDE8B08300BF80B485B0E9
:1017600000AF78607B6893F871302F2B0AD97B68C3
:1017700093F87130392B05D87B6893F871301B01D1
:10178000DAB224E07B6893F87130602B0CD97B6867
:1017900093F871307A2B07D87B6893F87130573BF8
:1017A000DBB21B01DAB212E07B6893F87130402B98
:1017B0000CD97B6893F871305A2B07D87B6893F863
:1017C0007130373BDBB21B01DAB200E000227B68EC
:1017D00093F872302F2B0BD97B6893F87230392B2A
:1017E00006D87B6893F8723003F00F03DBB226E073
:1017F0007B6893F87230602B0DD97B6893F8723058
:101800007A2B08D87B6893F87230573BDBB203F031
:101810000F03DBB213E07B6893F87230402B0DD9D5
:101820007B6893F872305A2B08D87B6893F8723033
:10183000373BDBB203F00F03DBB200E000231343BE
:10184000FB737B6893F88130FA7B9A420CBF0123CB
:101850000023DBB218461437BD465DF8047B7047A1
:1018600080B582B000AF78607B6893F87030012B50
:1018700036D17B68D3E922237968C1E900237B68EC
:10188000D3E924237968C1E902237B68D3E92623BD
:101890007968C1E904237B68D3E928237968C1E921
:1018A00006237B6893F8A8207B6883F820207B6858
:1018B00093F8A9207B6883F821207B6893F8AA20FD
:1018C0007B6883F822207B6893F8AB207B6883F8E1
:1018D00023207B6893F8AC207B6883F8242061E0A8
:1018E0007B6893F87030022B21D17B68D3E92223E7
:1018F0007968C1E90A237B68D3E926237968C1E9BD
:101900000E237B68D3E924237968C1E90C237B6823
:1019100093F8A0207B6883F840207B6803F14100A6
:101920007B68A1330C22194607F057FF3AE07B6829
:1019300093F87030032B06D17B6893F888207B687E
:1019400083F84D202EE07B6893F87030042B29D16A
:101950007B68D3E926237968C1E916237B6893F86D
:1019600088207B6883F84E207B68D3E9242379683C
:10197000C1E914237B68D3E928237968C1E91823D6
:101980007B6893F889207B6883F868207B6893F8EC
:101990008A207B6883F869207B6893F88B207B68BA
:1019A00083F86A20012318460837BD4680BD80B5FC
:1019B00082B000AF7860B0220021786807F07BFE2B
:1019C000012318460837BD4680BD80B586B000AFFC
:1019D000F860B9607A60BB687B61ADE07B691B78B9
:1019E000242B28D1FB68703340220021184607F0D1
:1019F00062FEFB6893F87E300B2B00F29780FB6849
:101A000093F87E3019467B691A78FB680B4483F89B
:101A10007120FB6893F87E300133DAB2FB6883F8FB
:101A20007E20FB6893F87E301A46FB681344002240
:101A300083F871207AE07B691B782C2B1DD1F86824
:101A4000FFF7E0FBFB6893F881207B691B7853402C
:101A5000DAB2FB6883F88120FB68002283F87E20DD
:101A6000FB68002283F87120FB6893F87F30013314
:101A7000DAB2FB6883F87F2058E07B691B782A2B59
:101A800017D1F868FFF7BEFBFB68012283F88020BE
:101A9000FB68002283F87E20FB68002283F8712017
:101AA000FB6893F87F300133DAB2FB6883F87F205C
:101AB0003CE07B691B780D2B09D1F868FFF74EFEDF
:101AC0000346002B32D0F868FFF7CAFE2EE0FB6811
:101AD00093F88030002B09D1FB6893F881207B6953
:101AE0001B785340DAB2FB6883F88120FB6893F8D7
:101AF0007E300B2B1AD8FB6893F87E3019467B6931
:101B00001A78FB680B4483F87120FB6893F87E30E9
:101B10000133DAB2FB6883F87E20FB6893F87E30ED
:101B20001A46FB681344002283F871207B69013355
:101B30007B617B68013B7B607B68002B7FF44EAF51
:101B4000012318461837BD4680BD000080B582B01D
:101B500000AF78607B684E4A934225D14D4B1B788D
:101B60000A2B10D04C4B1B785BB2002B0BDB4A4B83
:101B70001B785A1CD1B2484A11701A46454B197845
:101B8000464B99540AE0444B1B7801331A464349AB
:101B90004348FFF71AFF404B00221A7001223D49CB
:101BA0003B4806F066F86FE07B683E4A93426BD193
:101BB0003D4B1B78002B12D13C4B1B78002B0ED1D8
:101BC0003B4B1B78AA2B03D13A4B00221A6006E04C
:101BD000374B1B78AB2B02D1364B01221A60354BA9
:101BE0001B68002B2FD1324B1B780A2B0BD02E4BAE
:101BF0001B785A1CD1B22C4A11701A462C4B1978FA
:101C00002D4B99543BE02C4B5B78202B06D12B4B72
:101C100001221A60274B00221A6010E0264B5B78E5
:101C2000222B06D1254B02221A60224B01221A6078
:101C300005E0224B00221A601E4B00221A601A4B4C
:101C400000221A701BE01B4B1B68012B17D1174B8E
:101C50001B781A46164B1978194B9954134B1B785D
:101C60005A1C184B83FB0213D910D317C91A0B4601
:101C7000DB000B449B00D11ACAB20C4B1A70012234
:101C80000B49084805F0F5FF00BF0837BD4680BD89
:101C90001C0400202907002028070020A806002097
:101CA000F80500208C030020310700205807002091
:101CB00032070020B80400202C070020B4040020C4
:101CC00034070020398EE33880B582B000AF87ED4D
:101CD000010AD7ED017A9FED1E7A67EE877A9FEDB4
:101CE0001D7AC7EE876A16EE900AFEF72DFC0246B3
:101CF0000B469FED131B43EC102B09F0BDFD53EC7D
:101D0000102B4FF000001449FEF7BEFA02460B46B6
:101D1000104619460CA3D3E90023FEF76DFC0246DA
:101D20000B4610461946FEF73FFF034607EE903A72
:101D3000B0EE670A0837BD4680BD00BFAFF3008034
:101D4000000000C0955BC83F0000000040A5E540D2
:101D50000000C84280E6C5470000F03F00000000D8
:101D600080B584B000AF87ED030AC7ED020A87EDA6
:101D7000011AD7ED027A27EEA77AD7ED017A67EE3E
:101D8000A77A77EE277AB0EE670A0AF05BF8F0EEF2
:101D9000407AF0EE670A97ED030A0AF051F8F0EE88
:101DA000407A9FED0F7A67EE877A17EE900AFEF77A
:101DB000CBFB09A3D3E90023FEF748FD02460B46FF
:101DC00010461946FEF7F0FE034607EE903AB0EED5
:101DD000670A1037BD4680BD182D4454FB210940C9
:101DE0000000344380B485B000AF786087ED000A0E
:101DF000D7ED007A9FED127A67EE877AFDEEE77AEB
:101E0000B8EEE77ADFED0E6AC7EE267AC7ED037A01
:101E1000FB68BB60FA7A7B681A707B680133BA7A18
:101E20001A707B6802337A7A1A707B6803333A7AC5
:101E30001A7000BF1437BD465DF8047B704700BFC1
:101E40000000C84280B485B000AF78607B68DB7862
:101E50003B737B689B787B737B685B78BB737B6829
:101E60001B78FB73FB6807EE903AB0EE670A1437F5
:101E7000BD465DF8047B704780B58AB000AF87ED42
:101E8000070AC7ED060A87ED051AC7ED041A87EDA4
:101E9000032AC7ED022A87ED013AC7ED003A2C4B21
:101EA000AB221A7097ED070A2A48FFF79BFF97EDC0
:101EB000060A2948FFF796FF97ED050A2748FFF71E
:101EC00091FF97ED040A2648FFF78CFF97ED030A70
:101ED0002448FFF787FF97ED020A2348FFF782FFA8
:101EE00097ED010A2148FFF77DFF97ED000A204892
:101EF000FFF778FF002387F8273000233B620BE0D1
:101F0000134A3B6A13441A7897F82730134487F82A
:101F100027303B6A01333B623B6A202BF0DD0C4AE1
:101F200097F8273082F82130094B0D2283F82220C0
:101F3000074B0A2283F823204FF0FF332422044961
:101F40000C4805F00BFE00BF2837BD4680BD00BF22
:101F50005C0700205D070020610700206507002066
:101F6000690700206D070020710700207507002019
:101F7000790700208C0300202DE9B04FAEB018AFD8
:101F800002F024FC00F0AEFD00F028FF00F016FE89
:101F900000F042FE00F0A4FE00F0CCFE00F0F4FEE3
:101FA00000F068FE02F048FC0346C94A13600022B4
:101FB0004FF48061C74802F07FFF00224FF40061B8
:101FC000C44802F079FF322002F042FCC248FFF719
:101FD000EEFC0122C149C24805F04BFE0122C14975
:101FE000C14805F046FEC14BEE229A80BF4BC04A65
:101FF0001A60BE4801F0DAFBBE4B00221A60BB48F3
:1020000002F026F8B94801F0B5FDBB4800F0A6FF84
:10201000BA4BD3ED007A9FEDBA7A67EE877A9FEDDF
:10202000B97AC7EE876A16EE900AFEF78DFA024675
:102030000B469FEDA11B43EC102B09F01DFC53EC4C
:10204000102B4FF00000B049FEF71EF902460B4678
:10205000104619469AA3D3E90023FEF7CDFA0246AB
:102060000B4610461946FEF79FFD0346A74A13602C
:1020700002F0E2FB0246964B1B68D31A632BF7D99A
:1020800002F0DAFB0346924A1360A14B1B68002B57
:1020900004D09F4B1B68012B40F0D281934801F084
:1020A000D7FF924801F066FD9A49934800F0E0FF9F
:1020B000984BD3E91A0184A3D3E90023FEF79CFAD5
:1020C00002460B4610461946FEF76EFD0346FB64BA
:1020D000904BD3E91C017CA3D3E90023FEF78CFAD3
:1020E00002460B4610461946FEF75EFD0346BB64EA
:1020F000884BD3E91245B86CFEF726FA02460B4628
:1021000043EC102B09F0ECFD53EC102B2046294634
:10211000FEF772FA02460B46904699467D4BD3E98C
:102120001445B86CFEF710FA02460B4643EC102B30
:1021300009F032FE53EC102B20462946FEF75CFADC
:1021400002460B4614461D46F86CFEF7FDF90246A2
:102150000B4643EC102B09F01FFE53EC102B2046CE
:102160002946FEF749FA02460B4640464946FEF725
:102170008DF802460B4690469946664BD3E91645C4
:10218000B86CFEF7E1F902460B4643EC102B09F060
:1021900003FE53EC102B20462946FEF72DFA02468B
:1021A0000B4614461D46F86CFEF7CEF902460B4668
:1021B00043EC102B09F094FD53EC102B20462946DC
:1021C000FEF71AFA02460B4640464946FEF75EF80D
:1021D00002460B4610461946FEF7E6FC03467B64B2
:1021E0004C4BD3E91445F86CFEF7AEF902460B46AA
:1021F00043EC102B09F074FD53EC102B20462946BC
:10220000FEF7FAF902460B4690469946414BD3E950
:102210001645F86CFEF798F902460B4643EC102B76
:1022200009F0BAFD53EC102B20462946FEF7E4F9DD
:1022300002460B4640464946FEF726F802460B4644
:1022400010461946FEF7B0FC03463B64D7ED110A71
:1022500097ED100A09F0F4FDF0EE407A9FED2E7A2A
:1022600067EE877AC7ED0F7A2A4BD3E91A23104617
:102270001946FEF799FC0346284A1360254BD3E91B
:102280001C2310461946FEF78FFC0346244A1360B0
:10229000244AFB6B13601F4BD3E9022310461946F7
:1022A000FEF782FC0346204A13601A4BD3E904234D
:1022B000104619463AE000BF6C45D9CC955BC83F43
:1022C0000000000040A5E540399D52A246DF913F45
:1022D000F4050020000C0240F8050020290700202A
:1022E0001C040020320700208C030020B8050020C9
:1022F0008C020020B0040020E002002064040020D2
:102300000000C84280E6C5470000F03F700400208E
:10231000B404002040050020E12E65427C0400202A
:10232000800400208404002088040020FEF73CFC88
:102330000346354A1360354BD3E906231046194648
:10234000FEF732FC0346324A1360304BD3E90A23CE
:1023500010461946FEF728FC03462E4A13602B4B05
:10236000D3E90C2310461946FEF71EFC03462A4A01
:102370001360264BD3E90E2310461946FEF714FCD2
:102380000346264A1360264BD3E90023104619461C
:10239000FEF70AFC0346234A1360214BD3E90223CC
:1023A00010461946FEF700FC03461F4A13601C4BFB
:1023B000D3E9042310461946FEF7F6FB03461B4AF1
:1023C00013601B4BD3ED007AB0EE670AFFF77CFC7D
:1023D000F0EE407A174BC3ED007A174BD3ED007A3D
:1023E000094B93ED007A0A4BD3ED006AB0EE661A02
:1023F000F0EE470AB0EE670AFFF7B2FCF0EE407A63
:102400000E4BC3ED007AD7E18C040020400500207C
:102410009004002094040020980400209C040020D4
:10242000F8050020A0040020A4040020A804002037
:10243000640400207404002088040020AC04002000
:10244000A64B1B68022B40F0B781A548FFF7FAFCAA
:10245000F0EE407AA34BC3ED007AA348FFF7F2FCFD
:10246000F0EE407AA14BC3ED007AA148FFF7EAFCF9
:10247000F0EE407A9F4BC3ED007A9F48FFF7E2FCF5
:10248000F0EE407A9D4BC3ED007A9D48FFF7DAFCF1
:10249000F0EE407A9B4BC3ED007A9B48FFF7D2FCED
:1024A000F0EE407A994BC3ED007A9948FFF7CAFCE9
:1024B000F0EE407A974BC3ED007A9748FFF7C2FCE5
:1024C000F0EE407A954BC3ED007A954B1B7883F084
:1024D0000103DBB2002B06D0824B1B68914A1360CC
:1024E0008F4B01221A70834BD3ED007A834B93ED0F
:1024F000007A844BD3ED006AB0EE661AF0EE470A1C
:10250000B0EE670AFFF72CFCF0EE407A864BC3ED85
:10251000007A744B93ED007A824BD3ED007A77EE1C
:10252000677AB1EE047AF4EEC77AF1EE10FA02DDC2
:102530007E4B01221A707D4B1B78012B0AD1714B07
:10254000D3ED007AF5EEC07AF1EE10FA02D5784BB1
:1025500001221A70634BD3ED007A9FED767AF4EE88
:10256000C77AF1EE10FA02DD734B01221A70694B43
:10257000D3ED007A9FED717AF4EEC77AF1EE10FA9E
:1025800009DC644BD3ED007A9FED6D7AF4EEC77AE7
:10259000F1EE10FA02D56B4B01221A706A4B93EDE3
:1025A000007A504BD3ED007A77EE677AF5EEC07A79
:1025B000F1EE10FA06DD634B1B78012B02D1634B61
:1025C00001221A705A4B1B78012B0FD15F4B1B78DD
:1025D000012B0BD15B4B1B78012B07D15C4B0122EC
:1025E0001A70012240215B4802F066FC3D4BD3ED9E
:1025F000007A9FED597AF4EEC77AF1EE10FA06D51B
:10260000534B1B78012B02D1544B01221A70534BB0
:102610001B78012B1BD1334BD3ED007A9FED4E7A03
:10262000F4EEC77AF1EE10FA11D52E4BD3ED007A05
:102630009FED4B7AF4EEC77AF1EE10FA07DD494BC5
:1026400001221A7001228021424802F035FC454BDC
:102650001B785BB2DB015AB2404B1B785BB29B012B
:102660005BB213435AB23A4B1B785BB25B015BB26D
:1026700013435AB2354B1B785BB21B015BB2134359
:102680005AB2304B1B785BB2DB005BB213435AB2D9
:10269000294B1B785BB29B005BB213435AB2244BAD
:1026A0001B785BB25B005BB213435AB21F4B1B78C3
:1026B0005BB213435BB2DAB22B4B1A702B4BAA22DC
:1026C0001A70294B1A78294B5A70284B00229A709D
:1026D000002387F8573001233B6555E0B404002000
:1026E000350700207404002039070020640400200E
:1026F0003D07002088040020410700208C040020B2
:102700004507002090040020490700209404002081
:102710004D07002098040020510700209C04002051
:10272000BC04002070040020AC04002087070020B7
:10273000860700200000FA44850700200000484278
:10274000000070C284070020780400208307002066
:1027500082070020000C0240000016448107002080
:102760000000C84380070020880700208C07002055
:10277000294A3B6D13441A7897F85730134487F869
:1027800057303B6D01333B653B6D022BF0DD224A38
:1027900097F85730D370204B0D221A711E4B0A2226
:1027A0005A714FF0FF3306221B491C4805F0D6F939
:1027B0001B4B1B681B4A13601B4B1B68012B43D12F
:1027C000174BD3ED007A194B93ED007A184BD3EDEC
:1027D000006A184B93ED006A174BD3ED005A174B64
:1027E00093ED005A164BD3ED004A164B93ED004A79
:1027F000F0EE443AB0EE643AF0EE452AB0EE652AC7
:10280000F0EE461AB0EE661AF0EE470AB0EE670A2E
:10281000FFF732FB2CE400BF8C0700208C03002064
:102820007404002078040020B40400206404002014
:10283000880400208C040020900400207C040020E8
:1028400080040020840400208C4B1B68002B7FF444
:102850000FAC8B4B93ED007A8A4BD3ED007A77EE79
:10286000677AB2EE047AF4EEC77AF1EE10FA06DD7A
:10287000854B1B68002B02D1834B01221A60824BCF
:102880001B68012B2AD1814B93ED007A7C4BD3ED51
:10289000007A77EE677AB7EE007AF4EEC77AF1EE57
:1028A00010FA1BDD7A4BD3ED007A9FED7A7AF4EEC5
:1028B000C77AF1EE10FA09DC754BD3ED007A9FED83
:1028C000767AF4EEC77AF1EE10FA07D56E4B022253
:1028D0001A6001224021714802F0EEFA6A4B1B682F
:1028E000022B1BD1664BD3ED007A9FED6D7AF4EE8F
:1028F000C77AF1EE10FA09D4614BD3ED007A9FED5F
:10290000697AF4EEC77AF1EE10FA07DD5E4B032226
:102910001A6001228021614802F0CEFA5A4B1B68EE
:10292000032B0DD1564B93ED007A584BD3ED007A23
:10293000B4EE677AF1EE10FA02D1534B04221A601A
:102940004F4B1B681846FDF7FFFDC7E90C01564BBE
:102950001B681846FDF7F8FDC7E90A01534B1B68D1
:102960001846FDF7F1FDC7E90801514B1B681846F1
:10297000FDF7EAFDC7E906014E4B1B681846FDF757
:10298000E3FDC7E904014C4B1B681846FDF7DCFD6D
:10299000C7E90201494B1B681846FDF7D5FDC7E999
:1029A0000001474B1B681846FDF7CEFD82468B465B
:1029B000444B1B681846FDF7C7FD80468946424BCD
:1029C0001B681846FDF7C0FD04460D46304B1B68DA
:1029D0001846FDF7B9FD2C4B1B681693CDE9140181
:1029E000CDE91245CDE91089CDE90EAB97ED007B1D
:1029F0008DED0C7B97ED027B8DED0A7B97ED047BD3
:102A00008DED087B97ED067B8DED067B97ED087BC2
:102A10008DED047B97ED0A7B8DED027B97ED0C7BB2
:102A20008DED007B294A8021294806F0CBFD4FF02F
:102A3000FF3301222749284805F090F84FF0FF3373
:102A400001222649244805F089F84FF0FF3301227E
:102A50002349214805F082F81D48FDF709FC03468B
:102A60009AB24FF0FF331A491B4805F077F8044B30
:102A70001B68064A1360FFF7FBBA00BFB4040020CE
:102A80007404002070040020B004002078040020AA
:102A9000AC04002000007042000070C2000C024034
:102AA000000016440000C843A0040020A404002035
:102AB000A804002094040020980400209C04002016
:102AC000880400208C04002090040020D0DF00083F
:102AD000C004002092070020D40300200000002042
:102AE0000100002080B594B000AF07F12003302230
:102AF0000021184606F0DFFD07F10C0300221A60E2
:102B00005A609A60DA601A610023BB60294B1B6C23
:102B1000284A43F080531364264B1B6C03F0805308
:102B2000BB60BB6800237B60234B1B68224A43F4D5
:102B300080431360204B1B6803F480437B607B68F9
:102B400001233B624FF480337B620223BB634FF46B
:102B50008003FB6308233B644FF4A8737B64022368
:102B6000BB640423FB6407F12003184603F090FFC5
:102B70000346002B01D000F0EBF90F23FB6002238A
:102B80003B6100237B614FF4A053BB614FF4805342
:102B9000FB6107F10C030521184604F0F1F9034627
:102BA000002B01D000F0D4F904F0D0FA00BF503768
:102BB000BD4680BD003802400070004080B500AFC7
:102BC000124B134A1A60114B124A5A600F4B0022E3
:102BD0009A600E4B0022DA600C4B4FF480421A616F
:102BE0000A4B00225A61094B00229A61074B0022CE
:102BF000DA61064B00221A62044802F077F90346B4
:102C0000002B01D000F0A4F900BF80BD8C02002091
:102C100000540040A086010080B500AF124B134A5B
:102C20001A60114B124A5A600F4B00229A600E4BE9
:102C30000022DA600C4B4FF480421A610A4B0022EA
:102C40005A61094B00229A61074B0022DA61064B58
:102C500000221A62044802F049F90346002B01D011
:102C600000F076F900BF80BDE0020020005800406F
:102C7000A086010080B500AF174B184A1A60164BAA
:102C80004FF482725A60144B00229A60124B002259
:102C9000DA60114B00221A610F4B00225A610E4B71
:102CA0004FF400729A610C4B0022DA610A4B002249
:102CB0001A62094B00225A62074B00229A62064BA5
:102CC0000A22DA62044804F0D4FB0346002B01D048
:102CD00000F03EF900BF80BD340300200030014009
:102CE00080B500AF114B124A1A60104B4FF4E1321D
:102CF0005A600E4B00229A600C4B0022DA600B4B9C
:102D000000221A61094B0C225A61084B00229A6179
:102D1000064B0022DA61054804F0D0FE0346002B82
:102D200001D000F015F900BF80BD00BF8C0300206A
:102D3000004C004080B500AF114B124A1A60104B96
:102D40004FF416525A600E4B00229A600C4B002230
:102D5000DA600B4B00221A61094B0C225A61084BB6
:102D600000229A61064B0022DA61054804F0A6FEB3
:102D70000346002B01D000F0EBF800BF80BD00BF80
:102D8000D40300200044004080B500AF114B124A2C
:102D90001A60104B4FF416525A600E4B00229A6084
:102DA0000C4B0022DA600B4B00221A61094B0C22FB
:102DB0005A61084B00229A61064B0022DA610548ED
:102DC00004F07CFE0346002B01D000F0C1F800BFE8
:102DD00080BD00BF1C0400200014014080B58CB0F1
:102DE00000AF07F11C0300221A605A609A60DA6093
:102DF0001A610023BB61494B1B6B484A43F0100327
:102E00001363464B1B6B03F01003BB61BB690023CC
:102E10007B61424B1B6B414A43F0040313633F4BFE
:102E20001B6B03F004037B617B6900233B613B4B1D
:102E30001B6B3A4A43F080031363384B1B6B03F060
:102E400080033B613B690023FB60344B1B6B334ABF
:102E500043F001031363314B1B6B03F00103FB6071
:102E6000FB680023BB602D4B1B6B2C4A43F0020315
:102E700013632A4B1B6B03F00203BB60BB68002388
:102E80007B60264B1B6B254A43F008031363234BDF
:102E90001B6B03F008037B607B6800222021204825
:102EA00002F00AF800224FF400411E4802F004F834
:102EB00000224FF44C611C4801F0FEFF2023FB610F
:102EC00001233B6200237B620023BB6207F11C03EA
:102ED0001946134801F054FE4FF40043FB610123EF
:102EE0003B6200237B620023BB6207F11C0319468F
:102EF0000C4801F045FE4FF44C63FB6101233B623B
:102F000000237B620023BB6207F11C0319460648BD
:102F100001F036FE00BF3037BD4680BD00380240AC
:102F20000010024000040240000C024080B582B054
:102F300000AF78607B681B68044A934201D101F0BE
:102F400067FC00BF0837BD4680BD00BF00000140E0
:102F500080B400AF72B600BF00BFFDE780B588B097
:102F600004AF7860642302930123019307F10F03F8
:102F7000009301237522D021786802F025FDFA7BA9
:102F8000394B1A70394B01221A600323BB73642337
:102F900002930123019307F10E03009301231A22E8
:102FA000D021786802F016FC0023BB7364230293DF
:102FB0000123019307F10E03009301236B22D0211B
:102FC000786802F007FC0723BB7364230293012394
:102FD000019307F10E03009301231922D021786891
:102FE00002F0F8FB0023BB736423029301230193D7
:102FF00007F10E03009301231C22D021786802F010
:10300000E9FB0023BB73642302930123019307F1BF
:103010000E03009301231B22D021786802F0DAFB13
:103020000223BB73642302930123019307F10E0370
:10303000009301233722D021786802F0CBFB1623BE
:10304000BB73642302930123019307F10E030093E2
:1030500001230A22D021786802F0BCFB0023184625
:103060001037BD4680BD00BF9307002094070020A5
:103070002DE9B04F94B004AF7860396064230293B7
:103080000E23019307F10803009301233B22D02173
:10309000786802F099FC3B7A1BB21B021AB27B7A69
:1030A0001BB213431AB23B681A80BB7A1BB21B02D5
:1030B0001AB2FB7A1BB213431AB23B685A803B7BAD
:1030C0001BB21B021AB27B7B1BB213431AB23B68C2
:1030D0009A80BB7B1BB21B021AB2FB7B1BB2134351
:1030E000FB863B7C1BB21B021AB27B7C1BB21343D8
:1030F0001AB23B681A84BB7C1BB21B021AB2FB7C5F
:103100001BB213431AB23B685A843B7D1BB21B02AD
:103110001AB27B7D1BB213431AB23B689A843B6898
:10312000B3F900301846FDF7FDF94FF000029A4B55
:10313000FDF78CFB02460B463968C1E902233B6868
:10314000B3F902301846FDF7EDF94FF00002924B4B
:10315000FDF77CFB02460B463968C1E904233B6856
:10316000B3F904301846FDF7DDF985A3D3E9002350
:10317000FDF76CFB02460B463968C1E90623B7F937
:10318000363007EE903AB8EEE77ADFED846AC7EEA4
:10319000267A9FED837A77EE877A3B68C3ED187ABB
:1031A0003B68B3F920301846FDF7BCF976A3D3E9A4
:1031B0000023FDF74BFB02460B463968C1E90A23A1
:1031C0003B68B3F922301846FDF7ACF96EA3D3E99A
:1031D0000023FDF73BFB02460B463968C1E90C238F
:1031E0003B68B3F924301846FDF79CF966A3D3E990
:1031F0000023FDF72BFB02460B463968C1E90E237D
:1032000001F01AFB0246674B1B68D31A1846FDF7FC
:1032100079F94FF00002644BFDF718FB02460B46AC
:10322000C7E90A2301F008FB03465E4A13603B68C6
:10323000B3F900301A463B68B3F9003003FB02F2E1
:103240003B68B3F9043019463B68B3F9043001FB1D
:1032500003F313441846FDF765F902460B4643ECA9
:10326000102B08F079FB87ED080B4FF000024FF0B0
:103270000003D7E90801FDF727FC0346002B1FD107
:103280003B68B3F902301846FDF74CF9D7E908233B
:10329000FDF7DCFA02460B4643EC172BB0EE470A6B
:1032A000F0EE670A08F084FB51EC100B38A3D3E969
:1032B0000023FDF7A1F902460B46C7E90E2305E0FE
:1032C0004FF000024FF00003C7E90E233B68B3F94B
:1032D00000305B421846FDF725F982468B463B6875
:1032E000B3F904301846FDF71DF902460B4643ECCE
:1032F000112B4BEC10AB08F0BDFA51EC100B24A3D2
:10330000D3E90023FDF778F902460B46C7E9062307
:103310004FF00002254BD7E90601FDF7DFFB03461E
:10332000002B0AD03B68D3E91C014FF00002204B70
:10333000FDF7F2FB0346002B14D14FF000021C4BAB
:10334000D7E90601FDF7E8FB0346002B34D03B68C4
:10335000D3E91C014FF00002144BFDF7BFFB0346FD
:10336000002B29D01349D7E90623C1E90623396880
:10337000D7E90623C1E91C2333E000BFAFF3008087
:10338000000000000029CC40000000000060604008
:10339000F8C1631ADCA54C400000D0400000AA43ED
:1033A000B81E12429807002000408F40008056C08F
:1033B00000805640500000203B6893ED0C7B97ED59
:1033C0000A2BB0EE471AF0EE671A97ED060B464847
:1033D00000F090F8B0EE407AF0EE607A3B6883ED52
:1033E0001C7B3B68D3E91C23904623F000494FF037
:1033F00000023E4B40464946FDF78EFB0346002B3C
:1034000008D03B68D3E90A23144683F000453B68A3
:10341000C3E90A453B6893ED0A7B97ED0A2BB0EEB2
:10342000471AF0EE671A97ED0E0B314800F062F87C
:10343000B0EE407AF0EE607A3B6883ED1A7B64234D
:1034400002930823019307F1080300930123032249
:103450000C21786802F0B8FA3B7A1BB21B021AB250
:103460007B7A1BB213431AB23B68A3F84020BB7AA5
:103470001BB21B021AB2FB7A1BB213431AB23B688F
:10348000A3F842203B7B1BB21B021AB27B7B1BB210
:1034900013431AB23B68A3F844203B68B3F94030A9
:1034A0001846FDF73FF802460B463968C1E912237A
:1034B0003B68B3F942301846FDF734F802460B4634
:1034C0003968C1E914233B68B3F944301846FDF765
:1034D00029F802460B463968C1E9162300BF403778
:1034E000BD46BDE8B08F00BF5000002000805640B0
:1034F00008000020B0B596B000AFF86187ED040B6E
:1035000087ED021B87ED002BFB69D3E90823D7E980
:103510000201FCF7B9FE02460B46C7E91423FB691A
:10352000D3E90645D7E91423D7E90001FDF764F88C
:1035300002460B4620462946FCF7A8FE02460B46EB
:10354000F969C1E90623FB69D3E90A45FB69D3E9B7
:103550001001D7E90023FDF74FF802460B4610464D
:103560001946FB69D3E90C23FCF78EFE02460B4695
:1035700010461946FB69D3E90E23FCF785FE024687
:103580000B4610461946FB69D3E90023FCF77EFE83
:1035900002460B4610461946D7E90023FDF72CF8E2
:1035A00002460B4620462946FCF770FE02460B46B3
:1035B000F969C1E90A23FB69D3E90C45FB69D3E941
:1035C0001001D7E90023FDF717F802460B46204605
:1035D0002946FCF759FE02460B46F969C1E90C235E
:1035E000FB69D3E90E45FB69D3E91001D7E9002354
:1035F000FDF702F802460B4620462946FCF744FE3A
:1036000002460B46F969C1E90E23FB69D3E910456F
:10361000FB69D3E90201D7E90023FCF7EDFF02467D
:103620000B4620462946FCF731FE02460B46F96957
:10363000C1E91023FB69D3E90A01FB69D3E904233B
:10364000FCF724FE02460B46C7E91223FB69D3E9C7
:103650000A01D7E91223FDF7F9F802460B46C7E93C
:103660000823FB69D3E90E01D7E91223FDF7EEF831
:1036700002460B46C7E90A23FB69D3E90623D7E9CB
:103680000401FCF701FE02460B46C7E91023FB6963
:10369000D3E90645D7E90801D7E91023FCF7ACFFC9
:1036A00002460B4620462946FCF7F0FD02460B4633
:1036B000F969C1E90623FB69D3E90845D7E90A019D
:1036C000D7E91023FCF798FF02460B46204629460F
:1036D000FCF7DCFD02460B46F969C1E90823FB69EA
:1036E000D3E90A23C7E90E23FB69D3E90C23C7E911
:1036F0000C23FB69D3E90A45D7E90801D7E90E2372
:10370000FCF77AFF02460B4620462946FCF7BCFD33
:1037100002460B46F969C1E90A23FB69D3E90C4566
:10372000D7E90801D7E90C23FCF766FF02460B46F0
:1037300020462946FCF7A8FD02460B46F969C1E977
:103740000C23FB69D3E90E45D7E90A01D7E90E231B
:10375000FCF752FF02460B4620462946FCF794FD33
:1037600002460B46F969C1E90E23FB69D3E910450E
:10377000D7E90A01D7E90C23FCF73EFF02460B46C6
:1037800020462946FCF780FD02460B46F969C1E94F
:103790001023FB69D3E9062343EC172BB0EE470A4D
:1037A000F0EE670A5837BD46B0BD000080B582B064
:1037B00000AF7860786800F01DF87B6818687B6857
:1037C000998842F21073012202F030FB0346002B6D
:1037D00005D001224FF40051054801F06DFB7868D7
:1037E00000F022F8002318460837BD4680BD00BF10
:1037F0000008024080B586B004AF78607B68186826
:103800007B6899887B689A884FF47A7302930123C6
:103810000193044B0093012301F0DCFF00BF083744
:10382000BD4680BD9A00002080B58EB002AF7860A2
:103830008F4A07F1200392E80300186004331980CF
:1038400002330A0C1A700023BB8307F10C03002219
:103850001A605A609A609A81002387F82F300023FB
:1038600087F82F303BE07B6818687B68998897F869
:103870002F3007F120021A444FF47A73009301238A
:1038800001F078FC0023BB6210E07B6818687B685D
:10389000998807F11C02BB6A1A444FF47A730093AB
:1038A000022301F065FDBB6A0133BB62BB6A012BD9
:1038B000EBDD97F82F305B003A7F30333B4403F861
:1038C000242C97F82F305B0001337A7F30333B4450
:1038D00003F8242C97F82F30013387F82F3097F80E
:1038E0002F30062BBFD9002387F82F3097F82F30C1
:1038F00030333B4413F8243C1BB21B021AB297F836
:103900002F30013330333B4413F8243C1BB21343B4
:103910001BB29AB27B68DA8097F82F30023387F8AF
:103920002F3097F82F3030333B4413F8243C1BB230
:103930001B021AB297F82F30013330333B4413F88F
:10394000243C1BB213431BB29AB27B681A8197F8CE
:103950002F30023387F82F3097F82F3030333B4425
:1039600013F8243C1BB21B021AB297F82F30013314
:1039700030333B4413F8243C1BB213431BB29AB2BE
:103980007B685A8197F82F30023387F82F3097F8E9
:103990002F3030333B4413F8243C1BB21B021AB2C5
:1039A00097F82F30013330333B4413F8243C1BB2DB
:1039B00013431BB29AB27B689A8197F82F30023377
:1039C00087F82F3097F82F3030333B4413F8243CDE
:1039D0001BB21B021AB297F82F30013330333B442D
:1039E00013F8243C1BB213431BB29AB27B68DA81F2
:1039F00097F82F30023387F82F3097F82F30303375
:103A00003B4413F8243C1BB21B021AB297F82F3028
:103A1000013330333B4413F8243C1BB213431BB235
:103A20009AB27B681A8297F82F30023387F82F30CA
:103A300097F82F3030333B4413F8243C1BB21B0261
:103A40001AB297F82F30013330333B4413F8243C3B
:103A50001BB213431BB29AB27B685A8297F82F307D
:103A6000023387F82F3000BF3037BD4680BD00BF1E
:103A700010E0000880B586B002AF786007F10C0353
:103A800000210A461A800A469A7007F108030021AD
:103A90000A461A800A469A707B6818687B6899887B
:103AA0004FF47A73009301232F4A01F063FB142033
:103AB00000F0CEFE7B6818687B6899884FF47A73B3
:103AC00000930123294A01F055FB142000F0C0FEA9
:103AD0007B6818687B68998807F10C024FF47A7349
:103AE0000093032301F044FC3B7B1A047B7B1B0205
:103AF0001343BA7B13431A467B685A617B68186884
:103B00007B6899884FF47A7300930123184A01F077
:103B100031FB142000F09CFE7B6818687B68998854
:103B20004FF47A7300930123104A01F023FB142011
:103B300000F08EFE7B6818687B68998807F10802A0
:103B40004FF47A730093032301F012FC3B7A1A04BA
:103B50007B7A1B021343BA7A13431A467B689A6135
:103B600000BF1037BD4680BD980000209C07002094
:103B700099000020B0B582B000AF78607B689B6987
:103B80001846FCF7BFFC04460D467B68DB891846E7
:103B9000FCF7C8FC4FF00002694BFCF72DFD024614
:103BA0000B4620462946FCF76FFB02460B461046A3
:103BB0001946FCF7F9FF02467B68DA617B681B89CE
:103BC0001846FCF7AFFC4FF000024FF08243FCF7C1
:103BD00013FD02460B4614461D467B689B8907EE83
:103BE000903AB8EEE77A7B68D3ED077A67EE277AEA
:103BF00017EE900AFCF7A8FC4FF00002514BFCF7BF
:103C000025FE02460B4620462946FCF73FFB0246AE
:103C10000B4610461946FCF7C7FF02467B689A62BE
:103C20007B68DB881846FCF77DFC4FF00002464BB2
:103C3000FCF7E2FC02460B4614461D467B685B8996
:103C400007EE903AB8EEE77A7B68D3ED077A67EE35
:103C5000277A17EE900AFCF777FC4FF000023B4BF7
:103C6000FCF7F4FD02460B4620462946FCF70EFB06
:103C700002460B4610461946FCF796FF02467B6843
:103C8000DA627B6893ED077A7B681B8A07EE903ACD
:103C9000F8EEE77A67EE277A17EE900AFCF754FC05
:103CA0004FF000022A4BFCF7D1FD02460B461046AE
:103CB00019464FF00002274BFCF7E8FA02460B4684
:103CC00010461946FCF770FF02467B681A627B6853
:103CD0005B6907EE903AB8EE677A7B68D3ED0B7AB2
:103CE00067EE277A17EE900AFCF72EFC4FF00002E1
:103CF000194BFCF7ABFD02460B4614461D467B688C
:103D00009B6A1846FCF720FC02460B4620462946D3
:103D1000FCF7BAFA02460B46104619464FF000026D
:103D20000E4BFCF793FD02460B4610461946FCF776
:103D30003BFF02467B685A6200BF0837BD46B0BDF4
:103D400000007040000050400000F0400000604063
:103D50000000604100409F40000040410000E04002
:103D6000B0B582B000AF78607B68D3ED087A9FED84
:103D70008E7AF4EEC77AF1EE10FA40F1E3807B68B8
:103D800093ED077A7B68D3ED077A27EE277ADFED8C
:103D9000876AC7EE267A7B68C3ED0E7A7B68D3ED1F
:103DA000087A9FED817A37EEC77A7B68D3ED087A7F
:103DB000DFED7D6A77EEE67A67EE277AB1EE047A78
:103DC00027EE877AF0EE006AC7EE267A7B68C3EDAD
:103DD0000C7A7B68D3ED087A9FED737A37EEC77A59
:103DE0007B68D3ED087ADFED706A77EEE67A67EEEE
:103DF000277AB1EE047A27EE877AF1EE006AC7EEF1
:103E0000267A7B68C3ED0D7A7B68D3ED087A9FED47
:103E1000687AF4EEC77AF1EE10FA71D57B6893ED0B
:103E20000C7A7B68D3ED087ADFED626A77EEA66ADA
:103E30007B68D3ED087A9FED5F6A77EE867A66EE4F
:103E4000A77AF1EE0C6A67EEA67A77EE277A7B689E
:103E5000C3ED0C7A7B685B6B1846FCF775FB044678
:103E60000D467B68D3ED087A9FED527A37EE877A5C
:103E70007B68D3ED087ADFED4F6A77EEA67A67EEBE
:103E8000277AB2EE067A67EE877A17EE900AFCF789
:103E90005BFB4FF000024FF08043FCF7D7FC02467B
:103EA0000B4620462946FCF7F1F902460B46104620
:103EB0001946FCF779FE02467B685A637B6893EDEE
:103EC000087A7B68D3ED0E7A77EE677A7B68C3ED6C
:103ED000087A7B6893ED0A7A7B68D3ED0C7A77EEEB
:103EE000677A7B68C3ED0A7A7B6893ED0B7A7B680F
:103EF000D3ED0D7A77EE677A7B68C3ED0B7A4EE0EF
:103F00007B6893ED087A7B68D3ED0E7A77EE677A5B
:103F10007B68C3ED087A7B6893ED0A7A7B68D3ED02
:103F20000C7A77EE677A7B68C3ED0A7A7B6893ED4B
:103F30000B7A7B68D3ED0D7A77EE677A7B68C3EDF9
:103F40000B7A2CE07B684FF000029A637B684FF09D
:103F500000021A637B684FF000025A637B6893ED9E
:103F6000087A7B68D3ED0E7A77EE677A7B68C3EDCB
:103F7000087A7B6893ED0A7A7B68D3ED0C7A77EE4A
:103F8000677A7B68C3ED0A7A7B6893ED0B7A7B686E
:103F9000D3ED0D7A77EE677A7B68C3ED0B7A00BFBD
:103FA0000837BD46B0BD00BF0000FA440000004F16
:103FB0000080BBC40080BB44B0B582B000AF786065
:103FC0007B685B6A1846FCF7BFFA1FA3D3E900239E
:103FD000FCF73CFC02460B4614461D467B68D3EDBD
:103FE000097A9FED177AC7EE876A16EE900AFCF7FA
:103FF000ABFA02460B469FED101B43EC102B07F06B
:104000003BFC53EC102B4FF000000E49FCF73CF941
:1040100002460B4620462946FCF7EEFA02460B46BE
:1040200010461946FCF7C0FD034607EE903AB0EE85
:10403000670A0837BD46B0BD739B82A07A5AC83F55
:1040400080E6C5470000F03F39B4C876BE9F7A3F8E
:1040500080B582B000AF78607868FFF70BFD7868B4
:10406000FFF788FD7868FFF77BFE7868FFF7A4FF0D
:10407000F0EE407A184BC3ED007A7B685B6A184615
:10408000FCF762FA12A3D3E90023FCF7B5FA024663
:104090000B4610461946FCF787FD03460F4A13608E
:1040A0007B681B6A1846FCF74FFA09A3D3E9002383
:1040B000FCF7A2FA02460B4610461946FCF774FDBF
:1040C0000346074A1360002318460837BD4680BDE3
:1040D0007B14AE47E17A843F68040020640400202A
:1040E0006C04002080B483B000AF00237B60104BD1
:1040F0005B6C0F4A43F4804353640D4B5B6C03F4D9
:1041000080437B607B6800233B60094B1B6C084A43
:1041100043F080531364064B1B6C03F080533B60E9
:104120003B6800BF0C37BD465DF8047B704700BF9D
:104130000038024080B58CB000AF786007F11C03F6
:1041400000221A605A609A60DA601A617B681B6804
:10415000324A93422CD10023BB61314B1B6B304A56
:1041600043F0020313632E4B1B6B03F00203BB618E
:10417000BB69C023FB6112233B6200237B620323E4
:10418000BB620423FB6207F11C031946254800F0BB
:10419000F7FC00237B61224B1B6C214A43F4001384
:1041A00013641F4B1B6C03F400137B617B6931E0CC
:1041B0007B681B681C4A93422CD100233B61184B3F
:1041C0001B6B174A43F002031363154B1B6B03F081
:1041D00002033B613B694FF44063FB6112233B6286
:1041E00000237B620323BB620423FB6207F11C03F1
:1041F00019460C4800F0C4FC0023FB60084B1B6C04
:10420000074A43F480031364054B1B6C03F48003DB
:10421000FB60FB6800BF3037BD4680BD00540040E6
:1042200000380240000402400058004080B58AB0C7
:1042300000AF786007F1140300221A605A609A6098
:10424000DA601A617B681B68194A93422BD10023FC
:104250003B61184B5B6C174A43F480535364154B16
:104260005B6C03F480533B613B690023FB60114BA3
:104270001B6B104A43F0010313630E4B1B6B03F0DF
:104280000103FB60FB68E0237B610223BB61002329
:10429000FB6103233B6205237B6207F1140319468C
:1042A000054800F06DFC00BF2837BD4680BD00BF4B
:1042B00000300140003802400000024080B58EB05E
:1042C00000AF786007F1240300221A605A609A60F8
:1042D000DA601A617B681B68534A934234D1002329
:1042E0003B62524B1B6C514A43F4002313644F4B07
:1042F0001B6C03F400233B623B6A0023FB614B4BC6
:104300001B6B4A4A43F001031363484B1B6B03F0DA
:104310000103FB61FB6903237B620223BB62002371
:10432000FB6203233B6308237B6307F124031946E5
:104330003F4800F025FC00220021342000F064FBFF
:10434000342000F07DFB6AE07B681B68394A9342A9
:104350002CD10023BB61354B1B6C344A43F4003332
:104360001364324B1B6C03F40033BB61BB69002345
:104370007B612E4B1B6B2D4A43F0010313632B4BC8
:104380001B6B03F001037B617B690C237B620223BF
:10439000BB620023FB6203233B6307237B6307F1BC
:1043A00024031946224800F0EBFB38E07B681B68C9
:1043B000214A934233D100233B611C4B5B6C1B4A67
:1043C00043F020035364194B5B6C03F020033B6103
:1043D0003B690023FB60154B1B6B144A43F004033D
:1043E0001363124B1B6B03F00403FB60FB68C023D9
:1043F0007B620223BB620023FB6203233B6308232F
:104400007B6307F1240319460C4800F0B9FB002236
:104410000021472000F0F8FA472000F011FB00BF10
:104420003837BD4680BD00BF004C00400038024018
:104430000000024000440040001401400008024017
:1044400080B58CB000AF78600023BB6200237B6234
:104450000023BB602F4B5B6C2E4A43F00103536477
:104460002C4B5B6C03F00103BB60BB6807F10C02D3
:1044700007F110031146184602F0AEFF02F098FF54
:1044800003465B00BB62BB6A234AA2FB03239B0C6F
:10449000013B7B62214B224A1A60204B40F2E732FB
:1044A000DA601E4A7B6A53601C4B00221A611B4B68
:1044B00000229A60194B00229A61184803F062F8B2
:1044C000034687F82F3097F82F30002B1BD1134865
:1044D00003F0B2F8034687F82F3097F82F30002BFF
:1044E00011D1192000F0ACFA7B680F2B08D80022FC
:1044F0007968192000F088FA0A4A7B68136002E0A4
:10450000012387F82F3097F82F3018463037BD46F3
:1045100080BD00BF0038024083DE1B43A00700209F
:1045200000000140A000002080B500AF02F086FF2F
:1045300000BFFDE780B400AF00BFFDE780B400AF6F
:1045400000BFFDE780B400AF00BFFDE780B400AF5F
:1045500000BFFDE780B400AF00BFBD465DF8047B3F
:10456000704780B400AF00BFBD465DF8047B704764
:1045700080B400AF00BFBD465DF8047B704780B4D7
:1045800000AF00BFBD465DF8047B704780B500AF4B
:10459000024803F0C1F800BF80BD00BFA0070020A3
:1045A00080B500AF024803F089FB00BF80BD00BFAB
:1045B0008C03002080B500AF024803F07FFB00BFF2
:1045C00080BD00BF1C04002080B400AF012318464A
:1045D000BD465DF8047B704780B582B000AF78605F
:1045E000396005F0CDF8034616221A604FF0FF330C
:1045F00018460837BD4680BD80B582B000AF7860F0
:104600004FF0FF317868FFF7E7FF00BFFDE780B5A7
:1046100086B000AFF860B9607A6000237B610AE081
:10462000AFF300800146BB685A1CBA60CAB21A7068
:104630007B6901337B617A697B689A42F0DB7B6836
:1046400018461837BD4680BD80B586B000AFF8600B
:10465000B9607A6000237B6109E0BB685A1CBA60CC
:104660001B781846AFF300807B6901337B617A6960
:104670007B689A42F1DB7B6818461837BD4680BDDF
:1046800080B483B000AF78604FF0FF3318460C372A
:10469000BD465DF8047B704780B483B000AF78609E
:1046A00039603B684FF400525A60002318460C37BB
:1046B000BD465DF8047B704780B483B000AF78607E
:1046C000012318460C37BD465DF8047B704780B463
:1046D00085B000AFF860B9607A60002318461437DF
:1046E000BD465DF8047B704780B586B000AF78604A
:1046F000144A154BD31A7B617B693B61134B1B68D2
:10470000002B02D1114B124A1A60104B1A687B68B9
:1047100013443A699A4207D205F032F803460C2254
:104720001A604FF0FF3309E0084B1B68FB60074B32
:104730001A687B681344054A1360FB6818461837EB
:10474000BD4680BD0000022000040000E8070020F4
:104750004009002080B400AF064BD3F88830054AEA
:1047600043F47003C2F8883000BFBD465DF8047B97
:10477000704700BF00ED00E0DFF834D0FFF7EAFF3C
:104780000C480D490D4A002302E0D458C4500433AC
:10479000C4188C42F9D30A4A0A4C002301E0136082
:1047A0000432A242FBD304F0F1FFFDF7E5FB7047B2
:1047B00000000220000000207002002078E60008BF
:1047C000700200203C090020FEE7000080B500AF29
:1047D0000E4B1B680D4A43F4007313600B4B1B68B0
:1047E0000A4A43F480631360084B1B68074A43F48A
:1047F00080731360032000F0FCF80F20FFF720FE09
:10480000FFF770FC0023184680BD00BF003C02404B
:1048100080B400AF064B1B781A46064B1B68134446
:10482000044A136000BFBD465DF8047B704700BFBB
:10483000A4000020EC07002080B400AF034B1B68ED
:104840001846BD465DF8047B704700BFEC070020AA
:1048500080B584B000AF7860FFF7EEFFB8607B688A
:10486000FB60FB68B3F1FF3F05D00A4B1B781A468B
:10487000FB681344FB6000BFFFF7DEFF0246BB6826
:10488000D31AFA689A42F7D800BF00BF1037BD4666
:1048900080BD00BFA400002080B485B000AF786068
:1048A0007B6803F00703FB600C4BDB68BB60BA68F6
:1048B0004FF6FF031340BB60FB681A02BB6813434B
:1048C00043F0BF6343F40033BB60044ABB68D3606A
:1048D00000BF1437BD465DF8047B704700ED00E073
:1048E00080B400AF044BDB681B0A03F007031846D3
:1048F000BD465DF8047B704700ED00E080B483B0F6
:1049000000AF0346FB7197F90730002B0BDBFB79F7
:1049100003F01F02074997F907305B09012000FAED
:1049200002F241F8232000BF0C37BD465DF8047B3E
:10493000704700BF00E100E080B483B000AF0346E1
:104940003960FB7197F90730002B0ADB3B68DAB25C
:104950000C4997F907301201D2B20B4483F80023B7
:104960000AE03B68DAB20849FB7903F00F03043B25
:104970001201D2B20B441A7600BF0C37BD465DF867
:10498000047B704700E100E000ED00E080B489B0F6
:1049900000AFF860B9607A60FB6803F00703FB6161
:1049A000FB69C3F10703042B28BF0423BB61FB6928
:1049B0000433062B02D9FB69033B00E000237B6133
:1049C0004FF0FF32BB6902FA03F3DA43BB681A40C7
:1049D0007B699A404FF0FF317B6901FA03F3D943B9
:1049E0007B680B40134318462437BD465DF8047BB3
:1049F000704780B582B000AF78607868FFF74CFFF1
:104A000000BF0837BD4680BD80B586B000AF034605
:104A1000B9607A60FB7300237B61FFF761FF786107
:104A20007A68B9687869FFF7B1FF024697F90F30E5
:104A300011461846FFF780FF00BF1837BD4680BDFE
:104A400080B582B000AF0346FB7197F90730184676
:104A5000FFF754FF00BF0837BD4680BD80B584B066
:104A600000AF78607B689B6DFB60FFF7E5FEB86088
:104A70007B6893F83530DBB2022B08D07B6880224C
:104A80005A657B68002283F83420012352E07B685A
:104A90001B681A687B681B6822F016021A607B6824
:104AA0001B685A697B681B6822F080025A617B6828
:104AB0001B6C002B03D17B689B6C002B07D07B68A1
:104AC0001B681A687B681B6822F008021A607B6802
:104AD0001B681A687B681B6822F001021A6013E0E9
:104AE000FFF7AAFE0246BB68D31A052B0CD97B68D8
:104AF00020225A657B68032283F835207B680022D8
:104B000083F83420032315E07B681B681B6803F0DF
:104B10000103002BE4D17B68DB6D3F229A40FB68E8
:104B20009A607B68012283F835207B68002283F835
:104B30003420002318461037BD4680BD80B483B0B2
:104B400000AF78607B6893F83530DBB2022B04D07D
:104B50007B6880225A6501230CE07B68052283F87C
:104B600035207B681B681A687B681B6822F001028D
:104B70001A60002318460C37BD465DF8047B704769
:104B800080B489B000AF7860396000237B61002376
:104B90003B610023BB610023FB616BE10122FB69E8
:104BA00002FA03F37B613B681B687A6913403B613F
:104BB0003A697B699A4240F05A813B685B6803F02E
:104BC0000303012B05D03B685B6803F00303022B52
:104BD00030D17B689B68BB61FB695B00032202FAF2
:104BE00003F3DB43BA691340BB613B68DA68FB69D6
:104BF0005B0002FA03F3BA691343BB617B68BA69CD
:104C00009A607B685B68BB610122FB6902FA03F36F
:104C1000DB43BA691340BB613B685B681B0903F067
:104C20000102FB6902FA03F3BA691343BB617B68B3
:104C3000BA695A603B685B6803F00303032B17D023
:104C40007B68DB68BB61FB695B00032202FA03F34C
:104C5000DB43BA691340BB613B689A68FB695B0040
:104C600002FA03F3BA691343BB617B68BA69DA607D
:104C70003B685B6803F00303022B23D1FB69DA086E
:104C80007B68083253F82230BB61FB6903F00703ED
:104C90009B000F2202FA03F3DB43BA691340BB61A6
:104CA0003B681A69FB6903F007039B0002FA03F3F0
:104CB000BA691343BB61FB69DA087B680832B969DA
:104CC00043F822107B681B68BB61FB695B00032211
:104CD00002FA03F3DB43BA691340BB613B685B68CC
:104CE00003F00302FB695B0002FA03F3BA691343A2
:104CF000BB617B68BA691A603B685B6803F4403348
:104D0000002B00F0B4800023FB60604B5B6C5F4ABB
:104D100043F4804353645D4B5B6C03F48043FB605E
:104D2000FB685B4AFB699B08023352F82330BB6186
:104D3000FB6903F003039B000F2202FA03F3DB433A
:104D4000BA691340BB617B68524A93422BD07B689F
:104D5000514A934225D07B68504A93421FD07B68CA
:104D60004F4A934219D07B684E4A934213D07B68D6
:104D70004D4A93420DD07B684C4A934207D07B68E2
:104D80004B4A934201D107230EE008230CE006238F
:104D90000AE0052308E0042306E0032304E00223DD
:104DA00002E0012300E00023FA6902F0030292000E
:104DB0009340BA691343BB613549FB699B080233D1
:104DC000BA6941F823203B4B9B68BB613B69DB43DD
:104DD000BA691340BB613B685B6803F48013002B26
:104DE00003D0BA693B691343BB61324ABB69936024
:104DF000304BDB68BB613B69DB43BA691340BB6185
:104E00003B685B6803F40013002B03D0BA693B696D
:104E10001343BB61274ABB69D360264B5B68BB6108
:104E20003B69DB43BA691340BB613B685B6803F4D1
:104E30000033002B03D0BA693B691343BB611D4AA1
:104E4000BB6953601B4B1B68BB613B69DB43BA69A1
:104E50001340BB613B685B6803F48033002B03D0D5
:104E6000BA693B691343BB61124ABB691360FB69B2
:104E70000133FB61FB690F2B7FF690AE00BF00BFD3
:104E80002437BD465DF8047B704700BF0038024000
:104E900000380140000002400004024000080240C7
:104EA000000C0240001002400014024000180240B2
:104EB000001C0240003C014080B483B000AF786029
:104EC0000B467B8013467B707B78002B03D07A885F
:104ED0007B689A6103E07B881A047B689A6100BF53
:104EE0000C37BD465DF8047B7047000080B584B088
:104EF00000AF78607B68002B01D101232BE17B6838
:104F000093F83D30DBB2002B06D17B68002283F89A
:104F10003C207868FFF70EF97B68242283F83D2057
:104F20007B681B681A687B681B6822F001021A60A4
:104F30007B681B681A687B681B6842F400421A6031
:104F40007B681B681A687B681B6822F400421A6041
:104F500002F01AFAF8607B685B68814A934207D8CE
:104F6000FB68804A934294BF01230023DBB206E032
:104F7000FB687D4A934294BF01230023DBB2002BE0
:104F800001D00123E7E0FB68784AA2FB03239B0CD6
:104F9000BB607B681B685B6823F03F017B681B6814
:104FA000BA680A435A607B681B681B6A23F03F019A
:104FB0007B685B686A4A934202D8BB68013309E0A8
:104FC000BB684FF4967202FB03F3694AA2FB03230A
:104FD0009B0901337A6812680B4313627B681B6874
:104FE000DB6923F44F4222F0FF027B685B685C4977
:104FF0008B4219D8FB68591E7B685B685B00B1FB6C
:10500000F3F3591C40F6FC730B40002B0AD0FB68ED
:10501000591E7B685B685B00B1FBF3F30133C3F39C
:105020000B0351E004234FE07B689B68002B11D1F8
:10503000FB68581E7B6859680B465B000B44B0FB4D
:10504000F3F30133C3F30B03002B0CBF0123002345
:10505000DBB212E0FB68581E7B6859680B469B0068
:105060000B4499000B44B0FBF3F30133C3F30B0380
:10507000002B0CBF01230023DBB2002B01D0012346
:1050800022E07B689B68002B0ED1FB68581E7B6872
:1050900059680B465B000B44B0FBF3F30133C3F3D9
:1050A0000B0343F400430FE0FB68581E7B6859680C
:1050B0000B469B000B4499000B44B0FBF3F3013308
:1050C000C3F30B0343F44043796809681343CB618E
:1050D0007B681B681B6823F0C0017B68DA697B680A
:1050E0001B6A1A437B681B680A431A607B681B684B
:1050F0009B6823F4034323F0FF037A6811697A68FD
:10510000D26811437A6812680B4393607B681B680E
:10511000DB6823F0FF017B685A697B689B691A434F
:105120007B681B680A43DA607B681B681A687B68C7
:105130001B6842F001021A607B6800221A647B68D7
:10514000202283F83D207B6800221A637B680022BE
:1051500083F83E20002318461037BD4680BD00BFAF
:10516000A08601007F841E00FF083D0083DE1B43F4
:10517000D34D621080B588B002AFF8607A601A46ED
:105180000B467B8113463B81FFF756FB7861FB683A
:1051900093F83D30DBB2202B40F0E0807B69009338
:1051A000192301227049F86801F03CFA0346002BEC
:1051B00001D00223D3E0FB6893F83C30012B01D1EE
:1051C0000223CCE0FB68012283F83C20FB681B68CB
:1051D0001B6803F00103012B07D0FB681B681A68EA
:1051E000FB681B6842F001021A60FB681B681A68C2
:1051F000FB681B6822F400621A60FB68212283F8B6
:105200003D20FB68102283F83E20FB6800221A64D0
:10521000FB687A685A62FB683A895A85FB685B8D3D
:105220009AB2FB681A85FB68504ADA6279897B6911
:105230003A6AF86800F028FF0346002B01D00123EA
:105240008DE000233B61FB681B685B693B61FB6889
:105250001B689B693B613B6966E07A69396AF8685B
:1052600001F0FAFA0346002B0DD0FB681B6C042BEF
:1052700007D1FB681B681A68FB681B6842F4007260
:105280001A6001236BE0FB685B6A1A78FB681B6895
:105290001A61FB685B6A5A1CFB685A62FB685B8D8B
:1052A0009BB2013B9AB2FB685A85FB681B8D013BA0
:1052B0009AB2FB681A85FB681B685B6903F00403FC
:1052C000042B1BD1FB681B8D002B17D0FB685B6A7E
:1052D0001A78FB681B681A61FB685B6A5A1CFB68DA
:1052E0005A62FB685B8D9BB2013B9AB2FB685A85A0
:1052F000FB681B8D013B9AB2FB681A857A69396A93
:10530000F86801F0F1FA0346002B0DD0FB681B6C26
:10531000042B07D1FB681B681A68FB681B6842F402
:1053200000721A6001231AE0FB681B8D002B94D1D8
:10533000FB681B681A68FB681B6842F400721A60FD
:10534000FB68202283F83D20FB68002283F83E2082
:10535000FB68002283F83C20002300E0022318466B
:105360001837BD4680BD00BF020010000000FFFFDF
:1053700080B58CB002AFF8607A601A460B467B812C
:1053800013463B81FFF758FA7862FB6893F83D308B
:10539000DBB2202B40F017827B6A00931923012295
:1053A0007C49F86801F03EF90346002B01D0022346
:1053B0000AE2FB6893F83C30012B01D1022303E29F
:1053C000FB68012283F83C20FB681B681B6803F024
:1053D0000103012B07D0FB681B681A68FB681B6878
:1053E00042F001021A60FB681B681A68FB681B68C0
:1053F00022F400621A60FB68222283F83D20FB68D9
:10540000102283F83E20FB6800221A64FB687A6849
:105410005A62FB683A895A85FB685B8D9AB2FB68D1
:105420001A85FB685C4ADA6279897B6A3A6BF868AC
:1054300000F0ACFE0346002B01D00123C4E1FB6861
:105440001B8D002B13D100233B62FB681B685B693B
:105450003B62FB681B689B693B623B6AFB681B689D
:105460001A68FB681B6842F400721A6098E1FB68D6
:105470001B8D012B1BD1FB681B681A68FB681B681E
:1054800022F480621A600023FB61FB681B685B6981
:10549000FB61FB681B689B69FB61FB69FB681B6820
:1054A0001A68FB681B6842F400721A6078E1FB68B6
:1054B0001B8D022B1BD1FB681B681A68FB681B68DD
:1054C00022F480621A60FB681B681A68FB681B681C
:1054D00042F400621A600023BB61FB681B685B69D1
:1054E000BB61FB681B689B69BB61BB6958E1FB68DA
:1054F0001B681A68FB681B6842F480621A6000230C
:105500007B61FB681B685B697B61FB681B689B694F
:105510007B617B6944E1FB681B8D032B00F2F1800A
:10552000FB681B8D012B23D17A6A396BF86801F077
:1055300023FA0346002B01D0012345E1FB681B68D9
:105540001A69FB685B6AD2B21A70FB685B6A5A1C04
:10555000FB685A62FB681B8D013B9AB2FB681A8597
:10556000FB685B8D9BB2013B9AB2FB685A8517E1E1
:10557000FB681B8D022B4ED17B6A00933B6B002294
:105580000649F86801F04EF80346002B08D00123C5
:105590001AE100BF020010000000FFFF040001003C
:1055A000FB681B681A68FB681B6842F400721A608B
:1055B000FB681B681A69FB685B6AD2B21A70FB68E9
:1055C0005B6A5A1CFB685A62FB681B8D013B9AB2EE
:1055D000FB681A85FB685B8D9BB2013B9AB2FB6846
:1055E0005A85FB681B681A69FB685B6AD2B21A703D
:1055F000FB685B6A5A1CFB685A62FB681B8D013BA7
:105600009AB2FB681A85FB685B8D9BB2013B9AB22C
:10561000FB685A85C4E07B6A00933B6B00226C49AF
:10562000F86800F0FFFF0346002B01D00123CBE018
:10563000FB681B681A68FB681B6822F480621A60AA
:10564000FB681B681A69FB685B6AD2B21A70FB6858
:105650005B6A5A1CFB685A62FB681B8D013B9AB25D
:10566000FB681A85FB685B8D9BB2013B9AB2FB68B5
:105670005A857B6A00933B6B00225549F86800F01D
:10568000D1FF0346002B01D001239DE0FB681B687E
:105690001A68FB681B6842F400721A60FB681B689A
:1056A0001A69FB685B6AD2B21A70FB685B6A5A1CA3
:1056B000FB685A62FB681B8D013B9AB2FB681A8536
:1056C000FB685B8D9BB2013B9AB2FB685A85FB6815
:1056D0001B681A69FB685B6AD2B21A70FB685B6A66
:1056E0005A1CFB685A62FB681B8D013B9AB2FB682F
:1056F0001A85FB685B8D9BB2013B9AB2FB685A85A9
:105700004EE07A6A396BF86801F036F90346002BEF
:1057100001D0012358E0FB681B681A69FB685B6ACB
:10572000D2B21A70FB685B6A5A1CFB685A62FB684B
:105730001B8D013B9AB2FB681A85FB685B8D9BB29F
:10574000013B9AB2FB685A85FB681B685B6903F0F2
:105750000403042B24D1FB681B8D032B07D1FB68AA
:105760001B681A68FB681B6822F480621A60FB6879
:105770001B681A69FB685B6AD2B21A70FB685B6AC5
:105780005A1CFB685A62FB681B8D013B9AB2FB688E
:105790001A85FB685B8D9BB2013B9AB2FB685A8508
:1057A000FB681B8D002B7FF4B6AEFB68202283F8CC
:1057B0003D20FB68002283F83E20FB68002283F82E
:1057C0003C20002300E0022318462837BD4680BD58
:1057D0000400010080B588B002AFF86008461146A9
:1057E0001A4603467B810B463B811346FB80FFF73D
:1057F00023F87861FB6893F83D30DBB2202B40F052
:10580000D9807B690093192301226D49F86800F063
:1058100009FF0346002B01D00223CCE0FB6893F87C
:105820003C30012B01D10223C5E0FB68012283F843
:105830003C20FB681B681B6803F00103012B07D0A9
:10584000FB681B681A68FB681B6842F001021A605B
:10585000FB681B681A68FB681B6822F400621A6008
:10586000FB68212283F83D20FB68402283F83E201C
:10587000FB6800221A64FB683A6A5A62FB68BA8CB9
:105880005A85FB685B8D9AB2FB681A85FB684D4AA6
:10589000DA62F8883A8979897B690193BB6A009357
:1058A0000346F86800F040FD0346002B52D0012368
:1058B00081E07A69B96AF86800F0CEFF0346002BF0
:1058C0000DD0FB681B6C042B07D1FB681B681A68A2
:1058D000FB681B6842F400721A6001236BE0FB68EE
:1058E0005B6A1A78FB681B681A61FB685B6A5A1C62
:1058F000FB685A62FB681B8D013B9AB2FB681A85F4
:10590000FB685B8D9BB2013B9AB2FB685A85FB68D2
:105910001B685B6903F00403042B1BD1FB681B8D20
:10592000002B17D0FB685B6A1A78FB681B681A614A
:10593000FB685B6A5A1CFB685A62FB681B8D013B63
:105940009AB2FB681A85FB685B8D9BB2013B9AB2E9
:10595000FB685A85FB681B8D002BAAD17A69B96A4E
:10596000F86800F0C1FF0346002B0DD0FB681B6CEC
:10597000042B07D1FB681B681A68FB681B6842F49C
:1059800000721A60012316E0FB681B681A68FB6846
:105990001B6842F400721A60FB68202283F83D20E5
:1059A000FB68002283F83E20FB68002283F83C203D
:1059B000002300E0022318461837BD4680BD00BF13
:1059C000020010000000FFFF80B58CB002AFF8604D
:1059D000084611461A4603467B810B463B81134617
:1059E000FB80FEF729FF7862FB6893F83D30DBB25D
:1059F000202B40F014827B6A0093192301227B49FB
:105A0000F86800F00FFE0346002B01D0022307E2E6
:105A1000FB6893F83C30012B01D1022300E2FB68C4
:105A2000012283F83C20FB681B681B6803F001031C
:105A3000012B07D0FB681B681A68FB681B6842F0E3
:105A400001021A60FB681B681A68FB681B6822F475
:105A500000621A60FB68222283F83D20FB68402226
:105A600083F83E20FB6800221A64FB683A6B5A6296
:105A7000FB68BA8E5A85FB685B8D9AB2FB681A8503
:105A8000FB685B4ADA62F8883A8979897B6A019314
:105A9000BB6B00930346F86800F0DCFC0346002B68
:105AA00001D00123BCE1FB681B8D002B13D1002327
:105AB0003B62FB681B685B693B62FB681B689B6918
:105AC0003B623B6AFB681B681A68FB681B6842F410
:105AD00000721A6090E1FB681B8D012B1BD1FB68E3
